{
  "contractName": "TransportHeadquarter",
  "abi": [
    {
      "constant": true,
      "inputs": [
        {
          "name": "",
          "type": "uint256"
        }
      ],
      "name": "transportcenters",
      "outputs": [
        {
          "name": "",
          "type": "address"
        }
      ],
      "payable": false,
      "stateMutability": "view",
      "type": "function"
    },
    {
      "constant": true,
      "inputs": [],
      "name": "getCenterCount",
      "outputs": [
        {
          "name": "CenterCount",
          "type": "uint256"
        }
      ],
      "payable": false,
      "stateMutability": "view",
      "type": "function"
    },
    {
      "constant": false,
      "inputs": [
        {
          "name": "howmany",
          "type": "uint16"
        }
      ],
      "name": "mintTransportCenter",
      "outputs": [],
      "payable": true,
      "stateMutability": "payable",
      "type": "function"
    }
  ],
  "bytecode": "0x6060604052341561000f57600080fd5b61025b8061001e6000396000f300606060405260043610610057576000357c0100000000000000000000000000000000000000000000000000000000900463ffffffff168063075ea5f41461005c5780632f5d9fd5146100bf5780633336d629146100e8575b600080fd5b341561006757600080fd5b61007d6004808035906020019091905050610104565b604051808273ffffffffffffffffffffffffffffffffffffffff1673ffffffffffffffffffffffffffffffffffffffff16815260200191505060405180910390f35b34156100ca57600080fd5b6100d2610143565b6040518082815260200191505060405180910390f35b610102600480803561ffff1690602001909190505061014f565b005b60008181548110151561011357fe5b90600052602060002090016000915054906101000a900473ffffffffffffffffffffffffffffffffffffffff1681565b60008080549050905090565b600080600091505b8261ffff168210156101d9576001820190506000805480600101828161017d91906101de565b9160005260206000209001600083909190916101000a81548173ffffffffffffffffffffffffffffffffffffffff021916908373ffffffffffffffffffffffffffffffffffffffff160217905550508180600101925050610157565b505050565b81548183558181151161020557818360005260206000209182019101610204919061020a565b5b505050565b61022c91905b80821115610228576000816000905550600101610210565b5090565b905600a165627a7a723058209b0fa0b64a7276baafe04bdbf89eccfde722a454d798625c17bf621ecaad21c60029",
  "source": "pragma solidity ^0.4.18;\n\n\ncontract TransportHeadquarter {\n    \n    TransportCenter[] public transportcenters;\n    function getCenterCount() public view returns(uint CenterCount){\n\t    return transportcenters.length;\n    }\n        \n    function mintTransportCenter(uint16 howmany) public payable{\n    \tfor (uint i = 0; i < howmany; i++){\n\t\tTransportCenter newcenter = TransportCenter(i + 1);\n\t\ttransportcenters.push(newcenter);\n\t}\n    } \n}\n\n\ncontract TransportCenter {\n    \n    uint16 centerId;\n    string name;\n    uint8 occupationPercentage;\n    address public adminAddress;\n    address[] public neighbourAddress;\n        \n    event Created (string nonce, address[] centers, uint256 time);\n    event CenterCreated (uint16 id, uint256 time);\n    event Recieved (string nonce, address myaddress, uint256 time);\n    event Sent (string nonce, address myaddress, uint256 time);\n    event Delivered(string nonce);\n\n   \n\n    //Checks as Modifiers\n    modifier onlyAdmin() {\n        require(msg.sender == adminAddress);\n        _;\n    }\n    \n    function TransportCenter(uint16 _centerId) public {\n\t    centerId = _centerId;\n\t    adminAddress = msg.sender;\n\t    emit CenterCreated(centerId, block.timestamp);\n    }\n    //link centers that are neighbour to each other\n    function twowayLink(address neighbour) public onlyAdmin {\n        neighbourAddress.push(neighbour);\n    }\n\n    function newitem(string _trackingnonce,  address[] _centers) public {\n\t    emit Created(_trackingnonce, _centers, block.timestamp); \n    }\n    \n    function receive(string _trackingnonce) public {\n        emit Recieved(_trackingnonce, address(this), block.timestamp);\n    }\n\n    function send(string _trackingnonce) public {\n\t    emit Sent(_trackingnonce, address(this), block.timestamp); \n    }\n\n    function deliver(string _trackingnonce) public {\n        emit Delivered(_trackingnonce);\n    }\n    \n    function askforhelpfromneighbour() public {\n    \n    }\n\n    function helpneighbour() public {\n\n    }\n}\n\n\n",
  "sourcePath": "/home/oceanman/transport_center/contracts/Transport.sol",
  "compiler": {
    "name": "solc",
    "version": "0.4.21+commit.dfe3193c.Emscripten.clang"
  },
  "schemaVersion": "2.0.0",
  "updatedAt": "2018-04-04T05:37:28.568Z"
}