{
  "contractName": "TransportCenter",
  "abi": [
    {
      "constant": false,
      "inputs": [
        {
          "name": "_trackingnonce",
          "type": "string"
        },
        {
          "name": "_centers",
          "type": "address[]"
        }
      ],
      "name": "newitem",
      "outputs": [],
      "payable": false,
      "stateMutability": "nonpayable",
      "type": "function"
    },
    {
      "constant": false,
      "inputs": [
        {
          "name": "_trackingnonce",
          "type": "string"
        }
      ],
      "name": "send",
      "outputs": [],
      "payable": false,
      "stateMutability": "nonpayable",
      "type": "function"
    },
    {
      "constant": false,
      "inputs": [],
      "name": "helpneighbour",
      "outputs": [],
      "payable": false,
      "stateMutability": "nonpayable",
      "type": "function"
    },
    {
      "constant": false,
      "inputs": [],
      "name": "askforhelpfromneighbour",
      "outputs": [],
      "payable": false,
      "stateMutability": "nonpayable",
      "type": "function"
    },
    {
      "constant": false,
      "inputs": [
        {
          "name": "_trackingnonce",
          "type": "string"
        }
      ],
      "name": "deliver",
      "outputs": [],
      "payable": false,
      "stateMutability": "nonpayable",
      "type": "function"
    },
    {
      "constant": false,
      "inputs": [
        {
          "name": "neighbour",
          "type": "address"
        }
      ],
      "name": "twowayLink",
      "outputs": [],
      "payable": false,
      "stateMutability": "nonpayable",
      "type": "function"
    },
    {
      "constant": false,
      "inputs": [
        {
          "name": "_trackingnonce",
          "type": "string"
        }
      ],
      "name": "receive",
      "outputs": [],
      "payable": false,
      "stateMutability": "nonpayable",
      "type": "function"
    },
    {
      "constant": true,
      "inputs": [
        {
          "name": "",
          "type": "uint256"
        }
      ],
      "name": "neighbourAddress",
      "outputs": [
        {
          "name": "",
          "type": "address"
        }
      ],
      "payable": false,
      "stateMutability": "view",
      "type": "function"
    },
    {
      "constant": true,
      "inputs": [],
      "name": "adminAddress",
      "outputs": [
        {
          "name": "",
          "type": "address"
        }
      ],
      "payable": false,
      "stateMutability": "view",
      "type": "function"
    },
    {
      "inputs": [
        {
          "name": "_centerId",
          "type": "uint16"
        }
      ],
      "payable": false,
      "stateMutability": "nonpayable",
      "type": "constructor"
    },
    {
      "anonymous": false,
      "inputs": [
        {
          "indexed": false,
          "name": "nonce",
          "type": "string"
        },
        {
          "indexed": false,
          "name": "centers",
          "type": "address[]"
        },
        {
          "indexed": false,
          "name": "time",
          "type": "uint256"
        }
      ],
      "name": "Created",
      "type": "event"
    },
    {
      "anonymous": false,
      "inputs": [
        {
          "indexed": false,
          "name": "id",
          "type": "uint16"
        },
        {
          "indexed": false,
          "name": "time",
          "type": "uint256"
        }
      ],
      "name": "CenterCreated",
      "type": "event"
    },
    {
      "anonymous": false,
      "inputs": [
        {
          "indexed": false,
          "name": "nonce",
          "type": "string"
        },
        {
          "indexed": false,
          "name": "myaddress",
          "type": "address"
        },
        {
          "indexed": false,
          "name": "time",
          "type": "uint256"
        }
      ],
      "name": "Recieved",
      "type": "event"
    },
    {
      "anonymous": false,
      "inputs": [
        {
          "indexed": false,
          "name": "nonce",
          "type": "string"
        },
        {
          "indexed": false,
          "name": "myaddress",
          "type": "address"
        },
        {
          "indexed": false,
          "name": "time",
          "type": "uint256"
        }
      ],
      "name": "Sent",
      "type": "event"
    },
    {
      "anonymous": false,
      "inputs": [
        {
          "indexed": false,
          "name": "nonce",
          "type": "string"
        }
      ],
      "name": "Delivered",
      "type": "event"
    }
  ],
  "bytecode": "0x6060604052341561000f57600080fd5b60405160208061094983398101604052808051906020019091905050806000806101000a81548161ffff021916908361ffff16021790555033600260016101000a81548173ffffffffffffffffffffffffffffffffffffffff021916908373ffffffffffffffffffffffffffffffffffffffff1602179055507ffb7b455ffa701e96b8733a2b7467bf737764516e1093b3e4c0e041a50feba4d56000809054906101000a900461ffff1642604051808361ffff1661ffff1681526020018281526020019250505060405180910390a15061085b806100ee6000396000f300606060405260043610610099576000357c0100000000000000000000000000000000000000000000000000000000900463ffffffff1680631539fb6f1461009e57806366792ba11461013b5780636b36b592146101985780636f19e677146101ad57806391098ee4146101c2578063bd804a041461021f578063caa02f1514610258578063dd2470b1146102b5578063fc6f946814610318575b600080fd5b34156100a957600080fd5b610139600480803590602001908201803590602001908080601f016020809104026020016040519081016040528093929190818152602001838380828437820191505050505050919080359060200190820180359060200190808060200260200160405190810160405280939291908181526020018383602002808284378201915050505050509190505061036d565b005b341561014657600080fd5b610196600480803590602001908201803590602001908080601f0160208091040260200160405190810160405280939291908181526020018383808284378201915050505050509190505061045e565b005b34156101a357600080fd5b6101ab610539565b005b34156101b857600080fd5b6101c061053b565b005b34156101cd57600080fd5b61021d600480803590602001908201803590602001908080601f0160208091040260200160405190810160405280939291908181526020018383808284378201915050505050509190505061053d565b005b341561022a57600080fd5b610256600480803573ffffffffffffffffffffffffffffffffffffffff169060200190919050506105dc565b005b341561026357600080fd5b6102b3600480803590602001908201803590602001908080601f0160208091040260200160405190810160405280939291908181526020018383808284378201915050505050509190505061069e565b005b34156102c057600080fd5b6102d66004808035906020019091905050610779565b604051808273ffffffffffffffffffffffffffffffffffffffff1673ffffffffffffffffffffffffffffffffffffffff16815260200191505060405180910390f35b341561032357600080fd5b61032b6107b8565b604051808273ffffffffffffffffffffffffffffffffffffffff1673ffffffffffffffffffffffffffffffffffffffff16815260200191505060405180910390f35b7ffadc112c13a081c8e06d146fd15244297dd7694b700e343af8db5f5058fad288828242604051808060200180602001848152602001838103835286818151815260200191508051906020019080838360005b838110156103db5780820151818401526020810190506103c0565b50505050905090810190601f1680156104085780820380516001836020036101000a031916815260200191505b50838103825285818151815260200191508051906020019060200280838360005b83811015610444578082015181840152602081019050610429565b505050509050019550505050505060405180910390a15050565b7fd042c14415845343a21369c38a569cdc5b4cb642c4edb53ca0ca62975069792681304260405180806020018473ffffffffffffffffffffffffffffffffffffffff1673ffffffffffffffffffffffffffffffffffffffff168152602001838152602001828103825285818151815260200191508051906020019080838360005b838110156104fa5780820151818401526020810190506104df565b50505050905090810190601f1680156105275780820380516001836020036101000a031916815260200191505b5094505050505060405180910390a150565b565b565b7fa62e400ec2f4d8d483acfb4767b3abdf8e7d2487f601a9be001066386c158f14816040518080602001828103825283818151815260200191508051906020019080838360005b8381101561059f578082015181840152602081019050610584565b50505050905090810190601f1680156105cc5780820380516001836020036101000a031916815260200191505b509250505060405180910390a150565b600260019054906101000a900473ffffffffffffffffffffffffffffffffffffffff1673ffffffffffffffffffffffffffffffffffffffff163373ffffffffffffffffffffffffffffffffffffffff1614151561063857600080fd5b6003805480600101828161064c91906107de565b9160005260206000209001600083909190916101000a81548173ffffffffffffffffffffffffffffffffffffffff021916908373ffffffffffffffffffffffffffffffffffffffff1602179055505050565b7f27f4c4dd93016fb45e5c7b5dca544a376425f43f38bb8690211d3d081f51a73781304260405180806020018473ffffffffffffffffffffffffffffffffffffffff1673ffffffffffffffffffffffffffffffffffffffff168152602001838152602001828103825285818151815260200191508051906020019080838360005b8381101561073a57808201518184015260208101905061071f565b50505050905090810190601f1680156107675780820380516001836020036101000a031916815260200191505b5094505050505060405180910390a150565b60038181548110151561078857fe5b90600052602060002090016000915054906101000a900473ffffffffffffffffffffffffffffffffffffffff1681565b600260019054906101000a900473ffffffffffffffffffffffffffffffffffffffff1681565b81548183558181151161080557818360005260206000209182019101610804919061080a565b5b505050565b61082c91905b80821115610828576000816000905550600101610810565b5090565b905600a165627a7a723058208e4f8121a301ccb0064854f8f2d411adfe259f76579f831a5c0255526ea612600029",
  "source": "pragma solidity ^0.4.18;\n\n\ncontract TransportHeadquarter {\n    \n    TransportCenter[] public transportcenters;\n    function getCenterCount() public view returns(uint CenterCount){\n\t    return transportcenters.length;\n    }\n        \n    function mintTransportCenter(uint16 howmany) public payable{\n    \tfor (uint i = 0; i < howmany; i++){\n\t\tTransportCenter newcenter = TransportCenter(i + 1);\n\t\ttransportcenters.push(newcenter);\n\t}\n    } \n}\n\n\ncontract TransportCenter {\n    \n    uint16 centerId;\n    string name;\n    uint8 occupationPercentage;\n    address public adminAddress;\n    address[] public neighbourAddress;\n        \n    event Created (string nonce, address[] centers, uint256 time);\n    event CenterCreated (uint16 id, uint256 time);\n    event Recieved (string nonce, address myaddress, uint256 time);\n    event Sent (string nonce, address myaddress, uint256 time);\n    event Delivered(string nonce);\n\n   \n\n    //Checks as Modifiers\n    modifier onlyAdmin() {\n        require(msg.sender == adminAddress);\n        _;\n    }\n    \n    function TransportCenter(uint16 _centerId) public {\n\t    centerId = _centerId;\n\t    adminAddress = msg.sender;\n\t    emit CenterCreated(centerId, block.timestamp);\n    }\n    //link centers that are neighbour to each other\n    function twowayLink(address neighbour) public onlyAdmin {\n        neighbourAddress.push(neighbour);\n    }\n\n    function newitem(string _trackingnonce,  address[] _centers) public {\n\t    emit Created(_trackingnonce, _centers, block.timestamp); \n    }\n    \n    function receive(string _trackingnonce) public {\n        emit Recieved(_trackingnonce, address(this), block.timestamp);\n    }\n\n    function send(string _trackingnonce) public {\n\t    emit Sent(_trackingnonce, address(this), block.timestamp); \n    }\n\n    function deliver(string _trackingnonce) public {\n        emit Delivered(_trackingnonce);\n    }\n    \n    function askforhelpfromneighbour() public {\n    \n    }\n\n    function helpneighbour() public {\n\n    }\n}\n\n\n",
  "sourcePath": "/home/oceanman/transport_center/contracts/Transport.sol",
  "compiler": {
    "name": "solc",
    "version": "0.4.21+commit.dfe3193c.Emscripten.clang"
  },
  "schemaVersion": "2.0.0",
  "updatedAt": "2018-04-04T05:37:28.563Z"
}